{
  "_format": "hh-sol-artifact-1",
  "contractName": "OrbitAttestation",
  "sourceName": "contracts/OrbitAttestation.sol",
  "abi": [
    {
      "inputs": [],
      "stateMutability": "nonpayable",
      "type": "constructor"
    },
    {
      "anonymous": false,
      "inputs": [
        {
          "indexed": true,
          "internalType": "address",
          "name": "user",
          "type": "address"
        },
        {
          "indexed": true,
          "internalType": "bytes32",
          "name": "contentHash",
          "type": "bytes32"
        },
        {
          "indexed": false,
          "internalType": "uint256",
          "name": "timestamp",
          "type": "uint256"
        },
        {
          "indexed": false,
          "internalType": "string",
          "name": "storageRoot",
          "type": "string"
        }
      ],
      "name": "Attestation",
      "type": "event"
    },
    {
      "inputs": [
        {
          "internalType": "bytes32",
          "name": "contentHash",
          "type": "bytes32"
        },
        {
          "internalType": "string",
          "name": "storageRoot",
          "type": "string"
        },
        {
          "internalType": "uint256",
          "name": "deadline",
          "type": "uint256"
        },
        {
          "internalType": "bytes",
          "name": "signature",
          "type": "bytes"
        }
      ],
      "name": "attestWithSignature",
      "outputs": [],
      "stateMutability": "nonpayable",
      "type": "function"
    },
    {
      "inputs": [
        {
          "internalType": "bytes32",
          "name": "contentHash",
          "type": "bytes32"
        }
      ],
      "name": "getAttestation",
      "outputs": [
        {
          "internalType": "address",
          "name": "user",
          "type": "address"
        },
        {
          "internalType": "uint256",
          "name": "timestamp",
          "type": "uint256"
        },
        {
          "internalType": "string",
          "name": "storageRoot",
          "type": "string"
        }
      ],
      "stateMutability": "view",
      "type": "function"
    },
    {
      "inputs": [],
      "name": "getDomainSeparator",
      "outputs": [
        {
          "internalType": "bytes32",
          "name": "",
          "type": "bytes32"
        }
      ],
      "stateMutability": "view",
      "type": "function"
    },
    {
      "inputs": [
        {
          "internalType": "bytes32",
          "name": "contentHash",
          "type": "bytes32"
        }
      ],
      "name": "isAttested",
      "outputs": [
        {
          "internalType": "bool",
          "name": "",
          "type": "bool"
        }
      ],
      "stateMutability": "view",
      "type": "function"
    }
  ],
  "bytecode": "0x60c060405234801561001057600080fd5b50604080518082018252600581526413dc989a5d60da1b6020918201527f2b618ddbb8cff592f816420b992a8ed120a50f01abafe8389bf250e09a9bf598608052815180830190925260018252603160f81b9101527fc89efdaa54c0f20c7adf612882df0950f5a951637e0307cdcb4c672f298b8bc660a05260805160a051610a576100ae6000396000610679015260006106510152610a576000f3fe608060405234801561001057600080fd5b506004361061004c5760003560e01c8063a3112a6414610051578063c13c23961461007c578063ed24911d146100b2578063fe50b80f146100c8575b600080fd5b61006461005f3660046106ca565b6100dd565b604051610073939291906106e3565b60405180910390f35b6100a261008a3660046106ca565b60009081526020819052604090206003015460ff1690565b6040519015158152602001610073565b6100ba610231565b604051908152602001610073565b6100db6100d6366004610792565b610240565b005b600081815260208181526040808320815160808101835281546001600160a01b031681526001820154938101939093526002810180548594606094869491939192908401919061012c90610815565b80601f016020809104026020016040519081016040528092919081815260200182805461015890610815565b80156101a55780601f1061017a576101008083540402835291602001916101a5565b820191906000526020600020905b81548152906001019060200180831161018857829003601f168201915b50505091835250506003919091015460ff16151560209091015260608101519091506102185760405162461bcd60e51b815260206004820152601b60248201527f4f726269744174746573746174696f6e3a206e6f207265636f7264000000000060448201526064015b60405180910390fd5b8051602082015160409092015190969195509350915050565b600061023b610625565b905090565b824211156102905760405162461bcd60e51b815260206004820152601960248201527f4f726269744174746573746174696f6e3a206578706972656400000000000000604482015260640161020f565b60008681526020819052604090206003015460ff16156102fd5760405162461bcd60e51b815260206004820152602260248201527f4f726269744174746573746174696f6e3a20616c726561647920617474657374604482015261195960f21b606482015260840161020f565b604181146103605760405162461bcd60e51b815260206004820152602a60248201527f4f726269744174746573746174696f6e3a20696e76616c6964207369676e61746044820152690eae4ca40d8cadccee8d60b31b606482015260840161020f565b60007fb244108b705c642fe0376751d1cf7bb7ad7f9752945ea92ae6572e146b963f3a8787878760405160200161039b959493929190610878565b60405160208183030381529060405280519060200120905060006103bd610625565b60405161190160f01b602082015260228101919091526042810183905260620160408051601f19818403018152918152815160209283012092508535918601359086013560001a601b81101561041b57610418601b826108aa565b90505b6040805160008082526020820180845287905260ff841692820192909252606081018590526080810184905260019060a0016020604051602081039080840390855afa15801561046f573d6000803e3d6000fd5b5050604051601f1901519150506001600160a01b0381166104de5760405162461bcd60e51b815260206004820152602360248201527f4f726269744174746573746174696f6e3a20696e76616c6964207369676e617460448201526275726560e81b606482015260840161020f565b6040518060800160405280826001600160a01b031681526020014281526020018c8c8080601f016020809104026020016040519081016040528093929190818152602001838380828437600081840152601f19601f820116905080830192505050505050508152602001600115158152506000808e815260200190815260200160002060008201518160000160006101000a8154816001600160a01b0302191690836001600160a01b031602179055506020820151816001015560408201518160020190816105ad919061093e565b5060608201518160030160006101000a81548160ff0219169083151502179055509050508b816001600160a01b03167f9c6745b34a909a08f06c1b5b721bd7f6b88ead9f4a5e47dee7c0f19ade3858b4428e8e60405161060f939291906109fe565b60405180910390a3505050505050505050505050565b604080517f8b73c3c69bb8fe3d512ecc4cf759cc79239f7b179b0ffacaa9a75d522b39400f60208201527f0000000000000000000000000000000000000000000000000000000000000000918101919091527f000000000000000000000000000000000000000000000000000000000000000060608201524660808201523060a082015260009060c00160405160208183030381529060405280519060200120905090565b6000602082840312156106dc57600080fd5b5035919050565b60018060a01b03841681526000602084602084015260606040840152835180606085015260005b818110156107265785810183015185820160800152820161070a565b506000608082860101526080601f19601f83011685010192505050949350505050565b60008083601f84011261075b57600080fd5b50813567ffffffffffffffff81111561077357600080fd5b60208301915083602082850101111561078b57600080fd5b9250929050565b600080600080600080608087890312156107ab57600080fd5b86359550602087013567ffffffffffffffff808211156107ca57600080fd5b6107d68a838b01610749565b90975095506040890135945060608901359150808211156107f657600080fd5b5061080389828a01610749565b979a9699509497509295939492505050565b600181811c9082168061082957607f821691505b60208210810361084957634e487b7160e01b600052602260045260246000fd5b50919050565b81835281816020850137506000828201602090810191909152601f909101601f19169091010190565b85815284602082015260806040820152600061089860808301858761084f565b90508260608301529695505050505050565b60ff81811683821601908111156108d157634e487b7160e01b600052601160045260246000fd5b92915050565b634e487b7160e01b600052604160045260246000fd5b601f821115610939576000816000526020600020601f850160051c810160208610156109165750805b601f850160051c820191505b8181101561093557828155600101610922565b5050505b505050565b815167ffffffffffffffff811115610958576109586108d7565b61096c816109668454610815565b846108ed565b602080601f8311600181146109a157600084156109895750858301515b600019600386901b1c1916600185901b178555610935565b600085815260208120601f198616915b828110156109d0578886015182559484019460019091019084016109b1565b50858210156109ee5787850151600019600388901b60f8161c191681555b5050505050600190811b01905550565b838152604060208201526000610a1860408301848661084f565b9594505050505056fea2646970667358221220c69894bcf843d82c0a3f47f9ac520eececd977aa6fea83e0fa35ac94bda7447664736f6c63430008180033",
  "linkReferences": {},
  "deployedLinkReferences": {}
}