{
  "_format": "hh-sol-artifact-1",
  "contractName": "OrbitAttestation",
  "sourceName": "contracts/OrbitAttestation.sol",
  "abi": [
    {
      "anonymous": false,
      "inputs": [
        {
          "indexed": true,
          "internalType": "address",
          "name": "user",
          "type": "address"
        },
        {
          "indexed": true,
          "internalType": "bytes32",
          "name": "contentHash",
          "type": "bytes32"
        },
        {
          "indexed": false,
          "internalType": "uint256",
          "name": "timestamp",
          "type": "uint256"
        },
        {
          "indexed": false,
          "internalType": "string",
          "name": "storageRoot",
          "type": "string"
        }
      ],
      "name": "Attestation",
      "type": "event"
    },
    {
      "inputs": [
        {
          "internalType": "bytes32",
          "name": "contentHash",
          "type": "bytes32"
        },
        {
          "internalType": "string",
          "name": "storageRoot",
          "type": "string"
        }
      ],
      "name": "attest",
      "outputs": [],
      "stateMutability": "nonpayable",
      "type": "function"
    },
    {
      "inputs": [
        {
          "internalType": "bytes32",
          "name": "contentHash",
          "type": "bytes32"
        }
      ],
      "name": "getAttestation",
      "outputs": [
        {
          "internalType": "address",
          "name": "user",
          "type": "address"
        },
        {
          "internalType": "uint256",
          "name": "timestamp",
          "type": "uint256"
        },
        {
          "internalType": "string",
          "name": "storageRoot",
          "type": "string"
        }
      ],
      "stateMutability": "view",
      "type": "function"
    },
    {
      "inputs": [
        {
          "internalType": "bytes32",
          "name": "contentHash",
          "type": "bytes32"
        }
      ],
      "name": "isAttested",
      "outputs": [
        {
          "internalType": "bool",
          "name": "",
          "type": "bool"
        }
      ],
      "stateMutability": "view",
      "type": "function"
    }
  ],
  "bytecode": "0x608060405234801561001057600080fd5b5061064a806100206000396000f3fe608060405234801561001057600080fd5b50600436106100415760003560e01c8063a3112a6414610046578063c13c239614610071578063fc709c4e146100a7575b600080fd5b610059610054366004610382565b6100bc565b6040516100689392919061039b565b60405180910390f35b61009761007f366004610382565b60009081526020819052604090206003015460ff1690565b6040519015158152602001610068565b6100ba6100b5366004610401565b610210565b005b600081815260208181526040808320815160808101835281546001600160a01b031681526001820154938101939093526002810180548594606094869491939192908401919061010b9061047d565b80601f01602080910402602001604051908101604052809291908181526020018280546101379061047d565b80156101845780601f1061015957610100808354040283529160200191610184565b820191906000526020600020905b81548152906001019060200180831161016757829003601f168201915b50505091835250506003919091015460ff16151560209091015260608101519091506101f75760405162461bcd60e51b815260206004820152601b60248201527f4f726269744174746573746174696f6e3a206e6f207265636f7264000000000060448201526064015b60405180910390fd5b8051602082015160409092015190969195509350915050565b60008381526020819052604090206003015460ff161561027d5760405162461bcd60e51b815260206004820152602260248201527f4f726269744174746573746174696f6e3a20616c726561647920617474657374604482015261195960f21b60648201526084016101ee565b6040518060800160405280336001600160a01b0316815260200142815260200183838080601f0160208091040260200160405190810160405280939291908181526020018383808284376000920182905250938552505060016020938401819052878352828452604092839020855181546001600160a01b0319166001600160a01b039091161781559385015190840155508201516002820190610321908261051e565b50606091909101516003909101805460ff1916911515919091179055604051839033907f9c6745b34a909a08f06c1b5b721bd7f6b88ead9f4a5e47dee7c0f19ade3858b490610375904290879087906105de565b60405180910390a3505050565b60006020828403121561039457600080fd5b5035919050565b60018060a01b03841681526000602084602084015260606040840152835180606085015260005b818110156103de578581018301518582016080015282016103c2565b506000608082860101526080601f19601f83011685010192505050949350505050565b60008060006040848603121561041657600080fd5b83359250602084013567ffffffffffffffff8082111561043557600080fd5b818601915086601f83011261044957600080fd5b81358181111561045857600080fd5b87602082850101111561046a57600080fd5b6020830194508093505050509250925092565b600181811c9082168061049157607f821691505b6020821081036104b157634e487b7160e01b600052602260045260246000fd5b50919050565b634e487b7160e01b600052604160045260246000fd5b601f821115610519576000816000526020600020601f850160051c810160208610156104f65750805b601f850160051c820191505b8181101561051557828155600101610502565b5050505b505050565b815167ffffffffffffffff811115610538576105386104b7565b61054c81610546845461047d565b846104cd565b602080601f83116001811461058157600084156105695750858301515b600019600386901b1c1916600185901b178555610515565b600085815260208120601f198616915b828110156105b057888601518255948401946001909101908401610591565b50858210156105ce5787850151600019600388901b60f8161c191681555b5050505050600190811b01905550565b83815260406020820152816040820152818360608301376000818301606090810191909152601f909201601f191601019291505056fea26469706673582212200ba2e911f34976a5fa3b2e9c46121b30eda3f0b6df4845269b975fcfbe8801b564736f6c63430008180033",
  "linkReferences": {},
  "deployedLinkReferences": {}
}